:100000000C94A2030C94E9030C94E9030C94E90307
:100010000C94E9030C94E9030C94E9030C94E903B0
:100020000C94E9030C94E9030C94E9290C94BB2A81
:100030000C940D240C94E9030C94E9030C94E9034B
:100040000C94E9030C94E9030C94E9030C94E90380
:100050000C94E9030C9475240C94E9030C94E903C3
:100060000C94E9030C94E9030C94E9030C94E90360
:100070000C94E9030C94E9030C94E9030C94E90350
:100080000C94E9030C94E9030C94E9030C94E90340
:100090000C94E9030C94E9030C94E9030C94E90330
:1000A0000C94E9030C94E9030C94E9032409260950
:1000B000310928092A092C092E0930093309350983
:1000C0003709420939093B093D093F0941094409FA
:1000D000AA15AD15B015B315B615B915BC15BF15D4
:1000E000C215C515C815CB15CE152D1A2D1A5F1AB8
:1000F0005F1A9D1AEB1BEB1BEB1BBD1AEB1B6A1B5C
:100100006A1BDB1BEB1BEB1BE41B771B771B771BB3
:10011000771B771B771B771B771B771B771B771B4F
:10012000771B771B771B771B771B881B961B9D1BE9
:10013000A41BAE1B761C761C881C881C7F1C881C8C
:10014000881C881C761C761C841C881C881C841CBB
:10015000282B4F2B412C4F2B412C9B2BBE2B412C62
:10016000142C232C05A84CCDB2D44EB93836A90294
:100170000C50B9918688083CA6AAAA2ABE000000A5
:10018000803F0A002530313662003A2000253032A7
:1001900058000A722F632030313233343536373805
:1001A000394142434445460A000155C35C220021BF
:1001B0000020001F001E0029002A002B0017001538
:1001C0000008001A0014003500E30029000A0009A5
:1001D000000700160004004B0002550154050019E9
:1001E0000006001B001D004E0001532700260025BD
:1001F0000024002300460011552E00130012000CAD
:100200000018001C0028002C00340033000F000EE2
:10021000000D000B00E30004552D003800370036B8
:1002200000100011000154125501000100000000EF
:1002300000000000000000000001000100000000BC
:1002400000000000000000010001000100000000AB
:10025000000000000000000100010001000000009B
:100260000000000000000001000100D85C61006097
:10027000005F00D75C01000100670030005E005D98
:10028000005C002F0001000100570055005B005A80
:10029000005900B2000100010056005400630085BF
:1002A0000062005300010001000100C45C3E003DFB
:1002B000003C003B003A0029004C000100D45CD215
:1002C0005CCF5CCE5CCD5CC25C01000100CB5CC944
:1002D0005CC75CC55CC35C4A0001000100CC5CCA21
:1002E0005CC85CC65CC45C4D002A0043004200410F
:1002F0000040003F0026020100440030002F003083
:10030000022F02270201000100450001004F0052A8
:10031000005100500001000100310231004D004B3E
:10032000004E004A000100010044454255473A2072
:10033000656E61626C65642E0A007267625F6D6152
:10034000747269785F696E69745F647269766572E8
:1003500073207267625F6D61747269785F636F6E3C
:100360006669672E6D6F6465203D20302E205772C0
:100370006974652064656661756C742076616C755E
:10038000657320746F20454550524F4D2E0A007200
:1003900067625F6D61747269785F696E69745F64CA
:1003A000726976657273206565636F6E6669672032
:1003B0006973206E6F7420656E61626C65642E0ACD
:1003C000007267625F6D61747269785F636F6E66F9
:1003D00069672E7370656564203D2025640A00728C
:1003E00067625F6D61747269785F636F6E6669677B
:1003F0002E76616C203D2025640A007267625F6D75
:1004000061747269785F636F6E6669672E73617479
:10041000203D2025640A007267625F6D6174726915
:10042000785F636F6E6669672E687565203D20256D
:10043000640A007267625F6D61747269785F636FEE
:100440006E6669672E6D6F6465203D2025640A0025
:100450007267625F6D61747269785F636F6E6669FF
:10046000672E656E61626C65203D2025640A00720E
:1004700067625F6D61747269785F636F6E666967EA
:10048000206570726F6D0A006565636F6E666967DF
:100490005F7570646174655F7267625F6D617472CD
:1004A00069785F64656661756C740A00000000001D
:1004B0000001010101010101010102020202020227
:1004C00002020203030303030303030404040404FA
:1004D00004050505050506060606060707070708BD
:1004E0000808080909090A0A0A0A0B0B0B0C0C0C6C
:1004F0000D0D0D0E0E0F0F0F101011111112121302
:10050000131414151516161717181819191A1A1B7B
:100510001C1C1D1D1E1F1F202021222223242525D7
:1005200026272728292A2B2B2C2D2E2F2F3031320E
:1005300033343536363738393A3B3C3D3E3F40411F
:10054000424344464748494A4B4C4D4F5051525301
:10055000555657585A5B5C5E5F60626364666769B4
:100560006A6C6D6E707173747678797B7C7E808135
:10057000838486888A8B8D8F91929496989A9B9D7E
:100580009FA1A3A5A7A9ABADAFB1B3B5B7B9BBBD8B
:10059000BFC1C4C6C8CACCCFD1D3D6D8DADCDFE15C
:1005A000E4E6E8EBEDF0F2F5F7FAFCFF0A0025309F
:1005B000325820006B6579626F6172645F7265709A
:1005C0006F72743A20000A0025303258006B65794A
:1005D000626F6172645F7365745F6C65643A20007A
:1005E0005B735D004B6579626F6172642073746147
:1005F00072742E0A005B575D005B535D005B525DB9
:10060000005B445D005B435D0004033000000012AA
:10061000034D006F00640065006C00200030003165
:1006200000000016034B006500790062006F006156
:10063000007200640069006F0000000403090409EF
:10064000025B00030100A0FA09040000010301019C
:100650000009211101000122400007058103080063
:100660000A09040100010300000009211101000131
:100670002236000705820320000A09040200020353
:100680000000000921110100012222000705830357
:1006900020000107050303200001120110010000E2
:1006A0000008091201230100010203010631FF09BC
:1006B00074A1010975150026FF00952075088102B7
:1006C0000976150026FF00952075089102C00501E6
:1006D0000980A10185031601002603001A81002A62
:1006E0008300751095018100C0050C0901A10185E9
:1006F00004160100269C021A01002A9C027510951E
:10070000018100C005010906A101050719E029E7DB
:100710001500250195087501810295017508810173
:1007200005081901290595057501910295017503C3
:1007300091010507190029FF150026FF0095067590
:10074000088100C011241FBECFEFDAE0DEBFCDBFAD
:1007500004B603FE27C08091340490913504A09123
:100760003604B09137048730904BA740B04BD1F49A
:10077000109234041092350410923604109237040B
:1007800014BE84B7877F84BF0FB6F894A895809174
:100790006000886180936000109260000FBEE0E00E
:1007A000F8E3099512E0A0E0B1E0E8EBF0E602C062
:1007B00005900D92AA32B107D9F724E0AAE2B2E07F
:1007C00001C01D92A433B207E1F70E9404270C94E4
:1007D0005A300C940000FF93EF93E0912A02F091BD
:1007E0002B02309709F00995EF91FF910895FC01D4
:1007F0008591803011F0EFDFFBCF0895FF27E0E215
:1008000030E247FF0CC0419597FF09C0EDE26095CB
:10081000709580959095611D711D811D911D27FF1B
:1008200002C0219530E350E2AA27660F771F881F88
:10083000991FAA1FA41710F0A41B63955A95A9F736
:10084000AA3008F0A95FA05DAF93F395611571051B
:100850008105910541F7ED3211F4EF93F395F2170D
:1008600018F43F93F395FBCF8F91B5DFFA95E1F73D
:100870000895E991F9918591803021F0853219F040
:10088000AADFF9CF089520E0E89455915532C1F3DD
:10089000503311F4689455915A3348F4505390F3FF
:1008A000220F022E220F220F200D250FF4CF0EF45F
:1008B000219589919991533619F3533729F153357D
:1008C00059F1BC0188279927E8945C3621F4899175
:1008D000999168945591543639F446EF7EF077FF3C
:1008E0000DC08FEF9FEF0AC055374AE039F05835F9
:1008F00040E121F0523642E009F00895FF93EF9372
:100900007DDFEF91FF91B7CFFF93EF93FC018191D2
:100910008030B9F360DFFBCFFF93EF9368DFF1CF57
:10092000DF93CF93CDB7DEB72596A3DFCF91DF91CD
:1009300008951092B9008CE08093B8000895EF926A
:10094000FF920F931F93CF93DF93182FEB01109219
:10095000BC0084EA8093BC000E943F247C019091FB
:10096000BC0097FD0EC0CF3F8FEFD807C1F30E94A8
:100970003F248E199F098C179D0788F38EEF9FEFF8
:100980002EC09091B900987F983041F09091B900B5
:10099000987F903119F08FEF9FEF21C01093BB002B
:1009A00084E88093BC000E943F248C019091BC009D
:1009B00097FD0CC0CF3F8FEFD807C1F30E943F24B3
:1009C000801B910B8C179D0788F3D8CF8091B900BD
:1009D000887F883111F08034F1F680E090E0DF917B
:1009E000CF911F910F91FF90EF9008950F931F9358
:1009F000CF93DF93EB018093BB0084E88093BC002E
:100A00000E943F248C019091BC0097FD0EC0CF3F07
:100A10008FEFD807C1F30E943F24801B910B8C17E6
:100A20009D0788F38EEF9FEF0CC02091B900287FBF
:100A300081E090E0283211F480E090E0919581957A
:100A40009109DF91CF911F910F9108950F931F93FB
:100A5000CF93DF93EC0184EC8093BC000E943F2491
:100A60008C019091BC0097FD0EC0CF3F8FEFD8074F
:100A7000C1F30E943F24801B910B8C179D0788F3C4
:100A80008EEF9FEF03C08091BB0090E0DF91CF918C
:100A90001F910F9108950F931F93CF93DF93EC0154
:100AA00084E88093BC000E943F248C019091BC009C
:100AB00097FD0EC0CF3F8FEFD807C1F30E943F24B0
:100AC000801B910B8C179D0788F38EEF9FEF03C05F
:100AD0008091BB0090E0DF91CF911F910F9108951D
:100AE0000F931F93CF93DF93EC0184E98093BC00B5
:100AF0000E943F248C019091BC0094FF0EC0CF3F18
:100B00008FEFD807C1F30E943F24801B910B8C17F5
:100B10009D0788F38EEF9FEF02C080E090E0DF91A9
:100B2000CF911F910F910895CF92DF92EF92FF9294
:100B30000F931F93CF93DF936B017A018901B90162
:100B40000E949F04FC01892BC9F4E601EC0CFD1CFA
:100B5000CE15DF0541F0B80189910E94F604FC0131
:100B6000892BB1F30BC0C801DF91CF911F910F9179
:100B7000FF90EF90DF90CF900C947005CF01DF9144
:100B8000CF911F910F91FF90EF90DF90CF9008953C
:100B9000CF92DF92EF92FF920F931F93CF93DF9349
:100BA0007B01EA018901B90181600E949F040097DD
:100BB00039F567012197C6018E199F098C179D078A
:100BC00050F4C8010E942605FC0197FD18C0D6010B
:100BD0008D936D01F0CFC8010E944B05FC0197FD7C
:100BE0000EC0CE0DDF1D8883C801DF91CF911F910C
:100BF0000F91FF90EF90DF90CF900C947005CF0194
:100C0000DF91CF911F910F91FF90EF90DF90CF90E8
:100C10000895FC01EE0FFF1F8E0F9F1FFC01E45D86
:100C2000FD4F62834183208308956E9A76982498BD
:100C30002C9808959F92AF92BF92CF92DF92EF923D
:100C4000FF920F931F93CF93DF93CDB7DEB76997D2
:100C50000FB6F894DEBF0FBECDBFA12CB12C9CE225
:100C6000E92E92E0F92E00EB28E1922E670110E8C0
:100C70001983F601DE011296892D01900D928A9555
:100C8000E1F728EE33E049E150E0BE016F5F7F4FAE
:100C9000802F0E9494058FE891E00197F1F700C042
:100CA000000098E1C90ED11C1F5F143809F780E6D7
:100CB000E80EF11C06EBAA94AB2821F0AA24A39419
:100CC000B12CD4CF69960FB6F894DEBF0FBECDBF5E
:100CD000DF91CF911F910F91FF90EF90DF90CF9018
:100CE000BF90AF909F90089520E030E0F901E45D5F
:100CF000FD4F8283618340832D5F3F4F203C310550
:100D0000A9F70895CF93DF9300D000D0CDB7DEB719
:100D100093E099834A836B838C8328EE33E044E02D
:100D200050E0BE016F5F7F4F80EB0E94940528EE7C
:100D300033E044E050E0BE016F5F7F4F86EB0E94DE
:100D4000940585E38A95F1F700000F900F900F90BE
:100D50000F90DF91CF9108950F931F93CF93DF935F
:100D600000D000D01F92CDB7DEB78C01892B11F4D3
:100D700080EB01C086EB2AE030E045E050E0BE01A8
:100D80006F5F7F4F0E94C805892BC1F48981813034
:100D9000C1F4012B19F480E090E002C084E090E0FF
:100DA000FC01E451FD4F4A815B816C817D81408370
:100DB00051836283738380E090E005C081E090E01E
:100DC00002C082E090E00F900F900F900F900F9074
:100DD000DF91CF911F910F9108951F93CF93DF93D0
:100DE00000D0CDB7DEB73F9A479A0E94990412E02F
:100DF00019831A832AE030E042E050E0BE016F5FC1
:100E00007F4F80EB0E94940519831A832AE030E01B
:100E100042E050E0BE016F5F7F4F86EB0E94940579
:100E200088E0ECEEF2E0DF011D928A95E9F70E947E
:100E300096070F900F90DF91CF911F9108951F9308
:100E4000CF93DF931F92CDB7DEB780E090E00E9492
:100E5000AC06182F81E090E00E94AC0689830E94C6
:100E6000A0078981812B0F90DF91CF911F91089569
:100E7000E82FF0E0E451FD4F80810895CF92DF929A
:100E8000EF92FF920F931F93CF93DF9382E991E04C
:100E90000E94F7038CEEE82E82E0F82EC0E0D0E04E
:100EA0009DE8C92E91E0D92E04E811E0DF93CF939D
:100EB000DF92CF920E9490048AE891E00E94F703AB
:100EC000F70181917F0190E00E94E6229F938F932A
:100ED0001F930F930E94900482E891E00E94F70311
:100EE00021968DB79EB708960FB6F8949EBF0FBE99
:100EF0008DBFC830D105D1F6DF91CF911F910F91F1
:100F0000FF90EF90DF90CF90089508950C9485079F
:100F1000089540E060E080E00E9482060C9488071B
:100F200081E0089581E008950C9492070E940023C7
:100F3000811102C00E947A230E94D2150C94890765
:100F40000E942E158091F402811102C00E94D40DDE
:100F50008091F40290E00196817099278093F402C9
:100F60000C94860708950C94B2070C94B307089567
:100F70000E94661C0E94B7072FEF84E39CE021507B
:100F800080409040E1F700C0000087E797E790932A
:100F90000108809300080C949B24FF920F931F93E9
:100FA000CF93DF938C01FC01C081D18180915603E6
:100FB000811113C08281882349F0CE010E949B21B8
:100FC000F82E682FCE010E94402104C0CE010E945D
:100FD0006F21F82EBE018F2D04C0CE010E949B21EF
:100FE000BE010E94F809EC01B8010E949407882311
:100FF00009F4F3C1C93CFCE5DF0709F4CAC0C0F538
:10100000C23C9CE5D90709F48AC0C0F4C531FCE5AF
:10101000DF0778F4C2308CE5D80708F0F3C0C115BB
:101020009CE5D90709F45CC0C130DC4509F460C017
:10103000C7C1C631DC4509F49CC1C2C1C53C8CE5C1
:10104000D80709F48CC050F4C33CECE5DE0709F482
:101050006EC0C43CDC4509F476C0B2C1F80182819F
:10106000C73CFCE5DF0709F488C008F480C08BC0EA
:10107000C63DECE5DE07B0F4CE3CFCE5DF0708F04A
:10108000ACC1CB3C8CE5D80709F493C008F489C007
:10109000CC3CECE5DE0709F494C0CD3CDC4509F41A
:1010A00098C08EC1C93D8CE5D80709F447C150F4FA
:1010B000C73DECE5DE0709F4F7C0C83DDC4509F49F
:1010C00016C17EC1CD3D8CE5D80709F492C0CE3D56
:1010D0009CE5D907E1F0CC3DDC4509F071C182C047
:1010E000F8018281882309F478C10E94B80775C18C
:1010F000F8018281882309F470C18091CC0381605A
:101100008093CC0389E293E00E94F70366C1F80163
:101110008281882309F461C10E947A235EC1F801AB
:101120008281882309F459C10E94191656C1F80119
:101130008281882309F451C10E941B22827261F0CE
:101140000E9441164AC1F8018281882309F445C1F1
:101150000E941B228272A1F30E9427163EC1F80151
:101160008281882309F439C10E945B1636C1882325
:1011700009F433C10E94871630C1882309F42DC1B8
:101180000E94B7162AC1882309F427C10E94CD16F0
:1011900024C1F8018281882309F41FC10E94E71647
:1011A0001CC1F8018281882309F417C10E94FD1631
:1011B00014C1F8018281882309F40FC10E94171716
:1011C0000CC1F8018281882309F407C10E942C1701
:1011D00004C1F8018281882309F4FFC081E00E94E4
:1011E0004517FBC0F8018281882309F4F6C080E02E
:1011F00006C0F8018281882309F4EFC082E00E94D2
:10120000AC27EBC0F8018281882309F4DEC00E947C
:101210000023811102C00E947A230E94132390E0D0
:101220009093260480932504FE01E350FC45E231AF
:10123000F10530F4EA5AFF4F809125040C944D2FAC
:1012400080912504816027C0826025C0846023C00E
:10125000806121C080621FC080641DC080681BC087
:101260008460886018C08E7F16C08D7F14C08B7F0D
:1012700012C08F7E10C08F7D0EC08F7B0CC08F7709
:101280000AC08B7F877F07C087FB222720F991E068
:10129000922790FB87F980932504809125040E9472
:1012A00017230E94661C99C0F8018281882351F09F
:1012B0001092FA020E943F249093F7028093F60264
:1012C00082E022C08091FA0281110FC08091F60263
:1012D0009091F7020E944B24883C910530F486E2FD
:1012E0000E94FA1886E20E94BD1982E024C0F8012B
:1012F0008281882361F01092FB020E943F24909328
:10130000F9028093F80280E20E94E91966C0809198
:10131000FB0281110FC08091F8029091F9020E94A6
:101320004B24883C910530F487E20E94FA1887E24A
:101330000E94BD1980E20E94F0194FC0F80182811D
:101340008111D9CF8091FB028111F4CF8091F802F5
:101350009091F9020E944B24883C910558F780E255
:101360000E94F01988E20E94FA1888E20E94BD19D2
:1013700034C00E941B22282FF8018281409106016F
:1013800050910701882379F02A7A91E009F490E0DE
:101390009093F502911102C069E201C065E3CA01B0
:1013A0000E94AE230AC08091F502811102C069E259
:1013B00001C065E3CA010E94B0230E9467220DC0EC
:1013C00081E08093FA028093FB02C801DF91CF9104
:1013D0001F910F91FF900C94900780E0DF91CF91C7
:1013E0001F910F91FF90089580E090E00895089577
:1013F000E72FF0E098E0899FE00DF11D112483E0D4
:10140000EE0FFF1F8A95E1F7E60FF11DEE0FFF1FAC
:10141000E755FE4F859194910895880F991FFC011F
:10142000E65CFC4F859194910895CF93DF930E94E1
:10143000F8090E94CC0BEC01811520E59207F0F52C
:10144000811530E4930708F024C1883E910500F52A
:10145000803E910508F09CC1883A910570F4853A68
:10146000910508F09FC08130910509F491C108F4FD
:1014700042C1049708F08CC13EC18F3B910508F42E
:101480009CC0803C910508F436C1805C9109F4C091
:10149000811540E2940758F4C11581E0D80708F09F
:1014A00077C1C03FD10508F426C1D06571C181154F
:1014B00020E3920708F0E4C09F70DEC0811535E597
:1014C000930708F044C0811544E5940708F0F8C07C
:1014D000C11582E5D80708F5C11521E5D20708F046
:1014E000DBC08C2F837021E030E002C0220F331F5D
:1014F0008A95E2F73C68CE0174E0969587957A95D7
:10150000E1F78370382BCF70C695C69580E2C89FEF
:10151000E0011124C22BD32B3BC12C2F26952695FD
:10152000CE0183709927C115D34508F0BAC040E2B7
:10153000249F90011124C1E0D0E002C0CC0FDD1F38
:101540008A95E2F72C2B3D2BE901DC6821C181153E
:1015500049E59407A0F4C11588E5D80708F0B5C09F
:10156000C11526E5D20708F0C6C08C2F0E94490C91
:101570008F71C82FD0E0DC2FCC27D06209C1811534
:101580003AE5930708F4A6C090568115904208F0FA
:10159000B2C08D2F8F710E94490CDD27D0628F71F0
:1015A000D82BF6C0853A910509F4A8C0863A910572
:1015B00009F0A7C0C2E8D0E4EBC0883A910509F46D
:1015C000A3C0893A910509F4A2C08A3A910509F4A9
:1015D000A1C08B3A910509F4A0C08C3A910509F499
:1015E0009FC08B3B910509F49EC08C3B910509F48B
:1015F0009DC08D3A910509F49CC0803B910509F48A
:101600009BC08E3A910509F49AC08F3A910509F46E
:1016100099C0813B910509F498C0823B910509F47A
:1016200097C0833B910509F496C0843B910509F46A
:1016300095C0853B910509F494C0863B910509F45A
:1016400093C0873B910509F492C0883B910509F44A
:1016500091C0893B910509F490C08D3B910509F437
:101660008FC08E3B910509F48EC08A3B910509F429
:101670008DC0C0E0D4E48CC00E940D0AEC0188C08B
:101680009927D3FF03C0EC01D86C82C0EC01D06C69
:101690007FC0DF70D06A7CC0DC2FCC27C16FD06ADE
:1016A00077C040E2249F90011124C1E0D0E002C045
:1016B000CC0FDD1F8A95E2F7C22BD32BDA6868C006
:1016C000D82FCC27C46FD06A63C0DC2FCC27C06F63
:1016D000D06A5EC08F700E94490C94E0D695C79581
:1016E0009A95E1F7CF70D0E0DC2FCC27D06A8F70CD
:1016F000806EC82B4DC0C0E0D0E04AC0C1E8D0E445
:1017000047C0C3E8D0E444C0C2EED4E441C0C9EE4F
:10171000D4E43EC0CAEED4E43BC0C5EBD4E438C048
:10172000C6EBD4E435C0C3EBD4E432C0C4EBD4E49C
:101730002FC0C7EBD4E42CC0CCECD4E429C0CDEC52
:10174000D4E426C0C3E8D5E423C0CAE8D5E420C069
:10175000C2E9D5E41DC0C4E9D5E41AC0C1E2D6E4AB
:1017600017C0C3E2D6E414C0C4E2D6E411C0C5E297
:10177000D6E40EC0C6E2D6E40BC0C7E2D6E408C089
:10178000CFE6D4E405C0C0E7D4E402C0CAE2D6E4A0
:10179000CE01DF91CF9108958238910549F1B0F4DF
:1017A0008133910509F458C048F48932910509F450
:1017B0004EC08A32910509F454C0089585339105CD
:1017C00009F440C08933910599F00895833E91054D
:1017D00029F138F4803E910591F0823E9105A1F007
:1017E0000895863E9105F9F0873E910531F10895FF
:1017F0002091250420FD3AC021FD38C00895809134
:10180000250480FD35C032C08091250482FF32C09E
:101810008091250484FD30C083EE39C08091250479
:1018200082FD28C0F5CF8091250483FF27C08091D9
:10183000250484FD21C087EE2AC08091250483FD04
:101840001DC0F5CF8091250485FD1AC01BC0809175
:10185000250485FD17C014C08091250486FD14C0A1
:1018600015C08091250486FD11C00EC080EE0FC00A
:1018700089E30DC082EE0BC080E009C086EE07C090
:1018800089E205C085E303C08AE201C081E390E0FC
:1018900008959091250492FF0DC0282F28712830BB
:1018A00019F4877F846006C0282F2471243011F436
:1018B0008B7F886093FF0DC0282F2871283119F481
:1018C000877E846106C0282F2471243111F48B7E19
:1018D000886194FD877E0895CF92DF92EF92FF9208
:1018E0000F931F93CF93DF93E82FF82F711103C04D
:1018F000682F782F7EC0062F10E0C72FD0E0E82E8B
:10190000F12CC8016BE270E00E94252F9B0145ED90
:101910004203B001439F700D1124060F171F86E08C
:10192000809FB001819F700D11244FEF50E0CA01DC
:101930008C1B9D0B8E9DD0018F9DB00D9E9DB00D7B
:1019400011248B2F6C9F80016D9F100D7C9F100DBB
:101950001124012F11276A01C01AD10ACE9C8001DF
:10196000CF9C100DDE9C100D11246A01C61AD70AF7
:10197000CC9EB001CD9E700DDC9E700D1124672FA2
:101980007727461B570B4E9DE0014F9DD00D5E9D66
:10199000D00D11247D2F2230310599F04CF4211502
:1019A0003105C9F021303105A1F47E2FE12F13C09C
:1019B0002330310551F02430310559F4ED2F7B2FC0
:1019C00006C0EB2F8D2F7F2F06C0712FEB2F8F2F8F
:1019D00002C07B2F812FF0E0E455FB4F6491E72F8D
:1019E000F0E0E455FB4F7491E82FF0E0E455FB4F35
:1019F0008491DF91CF911F910F91FF90EF90DF9035
:101A0000CF90089588E090E00C94B72FAB01BC0113
:101A100088E090E00C94D52F8091CC0380FF08C023
:101A200088E894E09F938F930E9490040F900F900A
:101A30008FE08093DC031092DD038FEF8093DE0351
:101A40008093DF031092E0036091DC037091DD036B
:101A50008091DE039091DF030C94060D8091CC03FE
:101A600080FF08C08FE694E09F938F930E949004BC
:101A70000F900F908091CC0380FF0FC08091DC030A
:101A800081701F928F9380E594E09F938F930E94C3
:101A900090040F900F900F900F908091CC0380FFD7
:101AA00010C08091DC0386958F731F928F9383E320
:101AB00094E09F938F930E9490040F900F900F904B
:101AC0000F908091CC0380FF19C08091DC03881FA8
:101AD0008827881F9091DD03292F220F822B97FBE7
:101AE000992790F99F938F9387E194E09F938F9329
:101AF0000E9490040F900F900F900F908091CC0354
:101B000080FF0EC08091DE031F928F938BEF93E0D6
:101B10009F938F930E9490040F900F900F900F90BF
:101B20008091CC0380FF0EC08091DF031F928F93C2
:101B30008FED93E09F938F930E9490040F900F90EE
:101B40000F900F908091CC0380FF0EC08091E00336
:101B50001F928F9381EC93E09F938F930E94900448
:101B60000F900F900F900F900895CF93DF93F9018E
:101B70001082ABE1B1E090E02C91322F32953F70B2
:101B80002F7082130AC0631308C02081EA01C20FBC
:101B9000D11D988320812F5F20839F5F14969034FE
:101BA00059F7DF91CF910895E0911901F0911A0151
:101BB0000994E0911501F09116010994E091170143
:101BC000F0911801099440E060E080E00C94DE0D93
:101BD000ECEDF3E06081862F881F8827881F6091D5
:101BE000DD03660F682B728183810E946C0C962F37
:101BF000672F482F892F0C94DE0DAF92BF92CF92A2
:101C0000DF92EF92FF920F931F93CF93DF93609138
:101C1000DC03862F881F8827881F6091DD03660FED
:101C2000682B7091DE038091DF030E946C0CF62E0E
:101C3000E72ED82E9091DC03991F9927991F309198
:101C4000DD03832F880FE82FE92B37FBFF27F0F9FF
:101C5000CF018C549F4F68E671E00E94392F70913C
:101C6000DE03682F8091DF030E946C0CC62EB72E16
:101C7000A82E0BE111E0C0E0D0E0F8018381908153
:101C80009F3F61F080FF04C02A2D4B2D6C2D03C0B7
:101C90002D2D4E2D6F2DCE010E94D90D21960C5F5A
:101CA0001F4FC034D10549F7DF91CF911F910F919C
:101CB000FF90EF90DF90CF90BF90AF900895DF92AC
:101CC000EF92FF920F931F93CF93DF938091DC03EA
:101CD000881F8827881F9091DD03492F440F242FE8
:101CE000282B97FB332730F9C9018C549F4F68E6A6
:101CF00071E00E94392F821B930B8038910514F0FC
:101D00009A9505C081384FEF94070CF4939597FD91
:101D100003969595879595958795C82F8091DE03B5
:101D2000281B310937FF02C02D5F3F4F359527959E
:101D300035952795D22FD090DF039DE1E92E91E0D4
:101D4000F92E00E010E0F701208122952F706091BC
:101D5000DC03962F991F9927991F6091DD03660F69
:101D6000692B2C9F600D11247091DE032D9F700D47
:101D700011248D2D0E946C0C472F282FC8010E9422
:101D8000D90D0F5F1F4FF4E0EF0EF11C0034110569
:101D9000D1F6DF91CF911F910F91FF90EF90DF90DF
:101DA0000895AF92BF92CF92DF92EF92FF920F937E
:101DB0001F93CF93DF931F92CDB7DEB7D82E20911C
:101DC000DC03221F2227221F8091DD03982F990F09
:101DD000B22EB92A87FB882780F9EB2DF82FCF0187
:101DE0008C549F4F68E671E00E94392F9C012E1B96
:101DF0003F0B37FF02C02D5F3F4F35952795359537
:101E00002795A22EC090DE03009143031091440356
:101E100020914503309146039091E003992359F0B6
:101E2000692F70E08AE090E00E94392FCB01770F94
:101E3000AA0BBB0B04C08AE090E0A0E0B0E08023D6
:101E40009123A223B323892B8A2B8B2B41F40E944D
:101E50009F2F60E470E00E94392F082F01C00FEF20
:101E6000E12CF12C10E0D11003C0E016F106A9F42A
:101E70000E949F2F83706B2D8A9D600D11246983B2
:101E80000E949F2F69817C2D8091DF030E946C0C42
:101E9000472F282FC7010E94D90D8FEFE81AF80AA3
:101EA00080E4E816F104F9F60F90DF91CF911F91CD
:101EB0000F91FF90EF90DF90CF90BF90AF9008957B
:101EC000CF92DF92EF92FF921F93CF93DF93809197
:101ED000430390914403A0914503B09146030090C1
:101EE000E00304C0880F991FAA1FBB1F0A94D2F7F2
:101EF000182F8BE1C82E81E0D82EC0E0D0E09FE300
:101F0000E92EF12CF60180818F3FE1F0FE01EF51C7
:101F1000FC4F8081F4E08F9FC00111248034910533
:101F200024F4B701681B790B02C060E070E0610F18
:101F30007FEF8091DF030E946C0C472F282FCE018A
:101F40000E94D90D219624E0C20ED11CC034D105C7
:101F5000C9F6DF91CF911F91FF90EF90DF90CF9066
:101F60000895CF92DF92EF92FF920F931F93CF933A
:101F7000DF938091430390914403A0914503B09176
:101F800046030090E00304C0880F991FAA1FBB1FDF
:101F90000A94D2F7D82EC090DF030BE111E0C0E025
:101FA000D0E08FE3E82EF12CF80180818F3FF9F02B
:101FB000FE01EF51FC4F2081F4E02F9F900111248E
:101FC000203431052CF4C701821B930B9C0102C005
:101FD00020E030E0F80161816D0D620F7FEF8C2D04
:101FE0000E946C0C472F282FCE010E94D90D2196FC
:101FF0000C5F1F4FC034D105B9F6DF91CF911F910F
:102000000F91FF90EF90DF90CF900895CF92DF92E5
:10201000EF92FF920F931F93CF93DF93809143032F
:1020200090914403A0914503B09146030090E003D2
:1020300004C0880F991FAA1FBB1F0A94D2F7D82E7D
:10204000C090DF030BE111E0C0E0D0E08FE3E82EA9
:10205000F12CF80180818F3FF9F0FE01EF51FC4F28
:102060002081F4E02F9F90011124203431052CF4BD
:10207000C701821B930B9C0102C020E030E0F801F5
:1020800062816D0D620F7FEF8C2D0E946C0C472FCB
:10209000282FCE010E94D90D21960C5F1F4FC0340E
:1020A000D105B9F6DF91CF911F910F91FF90EF907D
:1020B000DF90CF9008952F923F924F925F926F9250
:1020C0007F928F929F92AF92BF92CF92DF92EF92C8
:1020D000FF920F931F93CF93DF933090DE032090F6
:1020E000DF03609143037091440380914503909115
:1020F00046030E948E2D2BED3FE049E450E40E9400
:102100005B2E20E030E040E05CE30E945B2E6B0140
:102110007C010E94E12C20E030E040E05DE30E9481
:102120005B2E2B013C01C701B6010E94C82E20E0A6
:1021300030E040EE52E40E94E62C4B015C01CDE120
:10214000D1E000E010E0688170E080E090E00E9463
:10215000902D20E030E040E052E40E94742CA30176
:1021600092010E945B2E6B017C01FE013197608120
:1021700070E080E090E00E94902D20E030E040EEA2
:1021800052E40E94742CA50194010E945B2E9B01D5
:10219000AC01C701B6010E94752C20E030E044E399
:1021A00053E40E945B2E6B017C018091DC03881F4D
:1021B0008827881F9091DD03292F220F622F682B1B
:1021C00097FB772770F9072E000C880B990B0E945C
:1021D000902D9B01AC01C701B6010E94752C0E9495
:1021E0005F2D732D822D0E946C0C472F282FC80164
:1021F0000E94D90D0F5F1F4F24960034110509F07E
:10220000A2CFDF91CF911F910F91FF90EF90DF90C0
:10221000CF90BF90AF909F908F907F906F905F9086
:102220004F903F902F9008952F923F924F925F9240
:102230006F927F928F929F92AF92BF92CF92DF92D6
:10224000EF92FF920F931F93CF93DF93CDB7DEB73B
:1022500028970FB6F894DEBF0FBECDBF8091DE0386
:102260008D839091DF039E836091430370914403BB
:1022700080914503909146030E948E2D2BED3FE007
:1022800049E450E40E945B2E20E030E040E05CE353
:102290000E945B2E6B017C010E94E12C2B013C0112
:1022A000C701B6010E94C82E69837A838B839C8301
:1022B000EDE1F1E0F887EF8300E010E0EF81F885D1
:1022C00031972080EF81F885B0803090E003332093
:1022D00079F0632D70E080E090E00E94902D20E086
:1022E00030E040EC5FE30E945B2E6B017C0106C096
:1022F000C12CD12C90ECE92E9FE3F92E6B2D70E0D0
:1023000080E090E00E94902D20E030E040E052E438
:102310000E94742C9B01AC01C701B6010E945B2E88
:10232000A30192010E945B2E4B015C01332079F0E6
:10233000632D70E080E090E00E94902D20E030E07E
:1023400040EC5FE30E945B2E6B017C0106C0C12C58
:10235000D12C80ECE82E8FE3F82E622D70E080E027
:1023600090E00E94902D20E030E040EE52E40E9488
:10237000742C9B01AC01C701B6010E945B2E298120
:102380003A814B815C810E945B2E9B01AC01C501AF
:10239000B4010E94752C6B017C018091DC03881FC5
:1023A0008827881F9091DD03292F220F622F682B29
:1023B00097FB772770F9072E000C880B990B0E946A
:1023C000902D9B01AC01C701B6010E94752C0E94A3
:1023D0005F2D7D818E810E946C0C472F282FC801B4
:1023E0000E94D90D0F5F1F4F8F81988504969887A3
:1023F0008F830034110509F061CF28960FB6F89449
:10240000DEBF0FBECDBFDF91CF911F910F91FF9027
:10241000EF90DF90CF90BF90AF909F908F907F9084
:102420006F905F904F903F902F9008952F923F9222
:102430004F925F926F927F928F929F92AF92BF92D4
:10244000CF92DF92EF92FF920F931F93CF93DF9380
:1024500000D000D01F92CDB7DEB72091DE032A83D3
:102460008091DF038B8360914303709144038091DB
:102470004503909146030E948E2D2BED3FE049E4E9
:1024800050E40E945B2E20E030E040E05CE30E94DC
:102490005B2E6B017C010E94E12C2B013C01C701EA
:1024A000B6010E94C82E4B015C01ADE1B1E0BD83D5
:1024B000AC8300E010E0EC81FD813197B081B983FD
:1024C000EC81FD8130802090E003222069F0622DB4
:1024D00070E0660F771F072E000C880B990B0E9487
:1024E000902D6B017C0105C0C12CD12CE12C20E486
:1024F000F22E632D70E080E090E00E94902D20E0AD
:1025000030E040E052E40E94742C9B01AC01C70112
:10251000B6010E945B2EA30192010E945B2E6B010B
:102520007C01222021F0312C220C331C03C082E0DC
:10253000282E312CF9816F2F70E080E090E00E940E
:10254000902D20E030E040EE52E40E94742C0E9476
:10255000582D9B0177FF04C022273327261B370BFA
:1025600082E490E0821B930B289EB001299E700D9F
:10257000389E700D1124072E000C880B990B0E94B9
:10258000902DA50194010E945B2E9B01AC01C70117
:10259000B6010E94752C6B017C018091DC03881FC1
:1025A0008827881F9091DD03292F220F622F682B27
:1025B00097FB772770F9072E000C880B990B0E9468
:1025C000902D9B01AC01C701B6010E94752C0E94A1
:1025D0005F2D7A818B810E946C0C472F282FC801B8
:1025E0000E94D90D0F5F1F4F8C819D8104969D83A2
:1025F0008C830034110509F05ECF0F900F900F907F
:102600000F900F90DF91CF911F910F91FF90EF905E
:10261000DF90CF90BF90AF909F908F907F906F9002
:102620005F904F903F902F9008952F923F924F923E
:102630005F926F927F928F929F92AF92BF92CF9252
:10264000DF92EF92FF920F931F93CF93DF9300D00F
:102650001F92CDB7DEB72090DE038091DF03898320
:102660006091430370914403809145039091460328
:102670000E948E2D20E030E040E85BE30E945B2E5C
:1026800020E030E040E653E40E945B2E2B013C0149
:10269000EDE1F1E0FB83EA8300E010E0EA81FB81F9
:1026A00031973080EA81FB81E080F090E003FF20E9
:1026B00079F06F2D70E080E090E00E94902D20E096
:1026C00030E040EC5FE30E945B2E4B015C0106C0F2
:1026D000812C912C90ECA92E9FE3B92E6E2D70E0E9
:1026E00080E090E00E94902D20E030E040E052E455
:1026F0000E94742C0E94582D9B0177FF04C0222752
:102700003327261B370BB901330F880B990B0E9417
:10271000902D9B01AC01C501B4010E945B2E2EE2FD
:102720003DEB4BEB53EB0E945B2E4B015C01FF201A
:1027300079F06F2D70E080E090E00E94902D20E015
:1027400030E040EC5FE30E945B2E6B017C0106C031
:10275000C12CD12C80ECE82E8FE3F82E632D70E095
:1027600080E090E00E94902DA30192010E94742CC1
:102770009B01AC01C701B6010E945B2E9B01AC011D
:10278000C501B4010E94742C6B017C018091DC03B3
:10279000881F8827881F9091DD03292F220F622F21
:1027A000682B97FB772770F9072E000C880B990B85
:1027B0000E94902D9B01AC01C701B6010E94752CAF
:1027C0000E945F2D722D89810E946C0C472F282F4B
:1027D000C8010E94D90D0F5F1F4F8A819B8104960B
:1027E0009B838A830034110509F058CF0F900F9016
:1027F0000F90DF91CF911F910F91FF90EF90DF909D
:10280000CF90BF90AF909F908F907F906F905F9090
:102810004F903F902F900895CF92DF92FF920F93A9
:102820001F93CF93DF931F92CDB7DEB7F82E0091A1
:102830004303109144032091450330914603909146
:10284000E003992359F0692F70E08AE090E00E943C
:10285000392FAB01770F660B770B04C04AE050E0CD
:1028600060E070E04023512362237323452B462B05
:10287000472B39F40E949F2F60E470E00E94392FAB
:1028800001C08FEF00E010E0C82ED12CF11003C082
:102890000C151D0581F40E949F2F89830E949F2F94
:1028A000782F69818091DF030E946C0C472F282FBD
:1028B000C8010E94D90D0F5F1F4F0034110531F779
:1028C0000F90DF91CF911F910F91FF90DF90CF90EC
:1028D00008956F927F928F929F92AF92BF92CF9204
:1028E000DF92EF92FF920F931F93CF93DF9300D06D
:1028F000CDB7DEB7882371F040E060E080E00E9451
:10290000DE0D80E4EEEFF2E0DF011D928A95E9F73B
:102910001092FD028EEFE82E82E0F82E812C7724B3
:102920007A9490EDC92ED12C20EC622E3FE2A32E9A
:10293000B12C8701912C91100CC08091FD02811166
:1029400008C00E949F2F853595401CF4F7017082C6
:1029500006C0D8018C9181508E3F08F48C939E0163
:102960002F5F3F4FAE014E5F5F4F682D892D0E9454
:10297000B50DF80121918F01EA81213D70F030E021
:10298000205D3109629EC001639E900D1124B50146
:102990000E94252F262F4FEF0AC0FFEF2F9FC00167
:1029A0001124B6010E94252F462F20E060E08E2FD3
:1029B00090E00E94D90D939428E09212BCCF8394AA
:1029C00038E0E30EF11C8212B4CF8091FD028F5FDC
:1029D0008D3158F11092FD0280E090E007E010E0A8
:1029E0004EEFF801E81BF90BDF01A250BD4F7D014E
:1029F000A5E0B3E0682F611104C02C912F3F09F4CA
:102A00004C93F70152915F3F19F44083F7015083D3
:102A1000F8E0EF0EF11C189623E0A534B20759F741
:102A2000019687309105E9F602C08093FD020F9070
:102A30000F90DF91CF911F910F91FF90EF90DF905A
:102A4000CF90BF90AF909F908F907F906F900895A0
:102A5000089508950E9428150C9429154091DC03CF
:102A600040FD0AC00E94E30D0E942A158091DC03FC
:102A700081708093050108958091FC02843120F4D7
:102A80008F5F8093FC0208958091430390914403EB
:102A9000A0914503B09146030196A11DB11D8093FD
:102AA000430390934403A0934503B093460380915E
:102AB0003F0390914003A0914103B09142038F3FA7
:102AC0002FEF9207A207B20759F00196A11DB11D81
:102AD00080933F0390934003A0934103B09342033C
:102AE00080913E03E1EEF3E090819F3F61F09E3FD5
:102AF00041F4282F30E02230310514F0815001C01C
:102B000080E09F5F9083319694E0E132F90761F7AE
:102B100080933E03E42FE695EF7380910401E81360
:102B200007C081E090910501913019F480E001C067
:102B300081E08170E093040191E0909305014E2FB4
:102B400050E0FA013197ED30F10550F5E859FF4FAB
:102B50000C944D2F0E94E80D23C00E94FD0D20C053
:102B60000E945B101DC00E945F0E1AC00E94D10E11
:102B700017C00E94600F14C00E94B10F11C00E94C4
:102B800006100EC00E9414110BC00E94161208C03D
:102B90000E94151305C00E940C1402C00E94691403
:102BA0000C942A15E0911301F09114010995E1EEBE
:102BB000F3E08FEF819394E0E132F907D9F70E94B7
:102BC0000023811110C08091CC0380FF08C08FE8E2
:102BD00093E09F938F930E9490040F900F900E9418
:102BE0007A230E940C0D0E94020D6093DC03709307
:102BF000DD038093DE039093DF036E77C1F4809151
:102C0000CC0380FF08C08AE393E09F938F930E94D8
:102C100090040F900F900E940C0D0E94020D609383
:102C2000DC037093DD038093DE039093DF030C9449
:102C30002E0DECEDF3E08081982F909590FB80F9BC
:102C4000808360817181828193810C94060D9091C3
:102C5000DC03892F86958F5F8F7391788E3018F4FF
:102C6000880F892B02C0892F82608093DC036091DA
:102C7000DC037091DD038091DE039091DF030C94FF
:102C8000060D9091DC03892F8695815C8F73917876
:102C9000882319F0880F892B02C0892F8A618093BD
:102CA000DC036091DC037091DD038091DE03909181
:102CB000DF030C94060D8091DC03982F991F992750
:102CC000991F8091DD03880F892B90E008968F3F34
:102CD000910519F014F08FEF90E02091DC0380FB58
:102CE00027F92093DC03282F26958091DD03807837
:102CF000822B90FB87F98093DD036091DC03709158
:102D0000DD038091DE039091DF030C94060D80912A
:102D1000DC03982F991F9927991F8091DD03880F55
:102D2000892B90E0089797FF02C080E090E08F3FEA
:102D3000910519F014F08FEF90E02091DC0380FBF7
:102D400027F92093DC03282F26958091DD038078D6
:102D5000822B90FB87F98093DD036091DC037091F7
:102D6000DD038091DE039091DF030C94060D8091CA
:102D7000DE0390E008968F3F910519F014F08FEF75
:102D800090E08093DE036091DC037091DD0380911D
:102D9000DE039091DF030C94060D8091DE0390E03A
:102DA000089797FF02C080E090E08F3F910519F0EF
:102DB00014F08FEF90E08093DE036091DC0370915C
:102DC000DD038091DE039091DF030C94060D80916A
:102DD000DF0390E008968F3F910519F014F08FEF14
:102DE00090E08093DF036091DC037091DD038091BC
:102DF000DE039091DF030C94060D8091DF0390E0D9
:102E0000089797FF02C080E090E08F3F910519F08E
:102E100014F08FEF90E08093DF036091DC037091FA
:102E2000DD038091DE039091DF030C94060D809109
:102E3000E00390E001968430910514F083E090E087
:102E40008093E0036091DC037091DD038091DE03E9
:102E50009091DF030C94060D8091E00390E00197C0
:102E600097FF02C080E090E08430910514F083E089
:102E700090E08093E0036091DC037091DD0380912A
:102E8000DE039091DF030C94060DECEDF3E08F73FD
:102E9000982F990F80818178892B8083608171813F
:102EA000828193810C94060D90934C0380934B0385
:102EB0000895E0914B03F0914C03309721F001907D
:102EC000F081E02D099480E00895EF92FF920F9336
:102ED0001F93CF93DF93E0914B03F0914C03309716
:102EE000B1F18C010280F381E02D09958091CC0332
:102EF00082FF2DC080FF04C084EB95E00E94F703A1
:102F0000E80118E08EEAE82E85E0F82E8091CC03E7
:102F100080FF0BC088811F928F93FF92EF920E94D7
:102F200090040F900F900F900F9011502196111157
:102F3000EDCF8091CC0380FF0AC08CEA95E0DF9151
:102F4000CF911F910F91FF90EF900C94F703DF91B9
:102F5000CF911F910F91FF90EF9008952091490319
:102F600030914A038217930771F090934A0380933C
:102F70004903E0914B03F0914C03309721F0068018
:102F8000F781E02D0994089520914703309148037B
:102F90008217930771F09093480380934703E09161
:102FA0004B03F0914C03309721F00084F185E02D24
:102FB0000994089585B7806885BF85B7806885BF07
:102FC0000895089508950C94E21708950C94E51758
:102FD0000E94DA170E94E1170C94E31781E008952C
:102FE0000E9436240E94ED060E94AC240C94E61741
:102FF000CF93C82F8091CC0382FF1EC080FF04C0F6
:103000008DEC95E00E94F7038091CC0380FF0CC00B
:103010001F92CF9388EC95E09F938F930E9490042A
:103020000F900F900F900F908091CC0380FF04C001
:1030300086EC95E00E94F7038C2FCF910C94B50796
:10304000CF92DF92EF92FF920F931F93CF93DF9374
:10305000CDB7DEB72B970FB6F894DEBF0FBECDBF4E
:103060000E941F070E94EE17811111C08FEF898304
:103070008A831B820E943F248160782F9D838C83EA
:1030800049815A816B818D810E94C61856C08EE499
:10309000C82E83E0D82E00E010E0E02E802F0E94A2
:1030A0003807F60141916F01F42EF82631F40F5FD5
:1030B0001F4F0830110589F7D9CF9091CC0391FFAC
:1030C00004C08B870E943E078B8520E030E04F2DA7
:1030D00050E0922FBA01022E02C0759567950A94AE
:1030E000E2F760FF24C02E83EF8221E030E0690127
:1030F00002C0CC0CDD1C9A95E2F790E08C219D215A
:10310000892B09F420E028870E943F248160782FD2
:103110009A8789874E815F8168858A850E94C61853
:10312000F801E25BFC4F8081C826C08206C02F5F99
:103130003F4F2830310569F6BACF10914D030E94F8
:1031400059171817A1F00E94591780934D032B9619
:103150000FB6F894DEBF0FBECDBFDF91CF911F91A8
:103160000F91FF90EF90DF90CF900C94F8172B9673
:103170000FB6F894DEBF0FBECDBFDF91CF911F9188
:103180000F91FF90EF90DF90CF900895CF93DF9352
:10319000CDB7DEB72B970FB6F894DEBF0FBECDBF0D
:1031A0004F83588769877A878B87DE01119686E07F
:1031B000FD0111928A95E9F785E0FE0137960190AD
:1031C0000D928A95E1F749815A816B817C818D81CD
:1031D0009E810E94101F2B960FB6F894DEBF0FBE83
:1031E000CDBFDF91CF910895FC01808191810E9434
:1031F000DC210895882309F4BFC0682F8CEF860F67
:10320000813A38F480910601909107010E94AE2323
:103210000CC080E2860F883050F4677081E001C0F6
:10322000880F6A95EAF70E941E220C9467228BE5AC
:10323000860F833070F4653A29F0663A31F083E8FE
:1032400090E005C081E890E002C082E890E00C9434
:10325000AE1788E5860F873108F08EC0683A09F40A
:1032600045C0693A09F445C06A3A09F445C06B3A69
:1032700009F445C06C3A09F445C06B3B09F445C0FC
:103280006C3B09F445C06D3A09F445C0603B09F454
:1032900045C06E3A09F445C06F3A09F445C0613B38
:1032A00009F445C0623B09F445C0633B09F445C0DD
:1032B000643B09F445C0653B09F445C0663B09F42D
:1032C00045C0673B09F445C0683B09F445C0693B0C
:1032D00009F445C06D3B09F445C06E3B09F445C097
:1032E0006A3B09F445C080E090E044C082EE90E083
:1032F00041C089EE90E03EC08AEE90E03BC085EB95
:1033000090E038C086EB90E035C083EB90E032C0AF
:1033100084EB90E02FC087EB90E02CC08CEC90E029
:1033200029C08DEC90E026C083E891E023C08AE8B4
:1033300091E020C082E991E01DC084E991E01AC0CB
:1033400081E292E017C083E292E014C084E292E04E
:1033500011C085E292E00EC086E292E00BC087E2E7
:1033600092E008C08FE690E005C080E790E002C0E0
:103370008AE292E00C94C4170895882349F1682FDB
:103380008CEF860F813A38F4809106019091070105
:103390000E94B0230CC080E2860F883050F4677022
:1033A00081E001C0880F6A95EAF70E9424220C94FC
:1033B00067228BE5860F833020F480E090E00C9448
:1033C000AE17685A673120F480E090E00C94C4177F
:1033D0000895882321F00E941E220C9467220895EC
:1033E000882321F00E9424220C94672208954F9292
:1033F0005F926F927F92BF92CF92DF92EF92FF9295
:103400000F931F93CF93DF937C01D62FC72FFC011F
:10341000058102950F70128111110E943B220E94BA
:103420001422882379F0112369F080E28D0F88300F
:1034300048F082E00E94B2220E94142291E0B82E4D
:10344000B92601C0B12CCC2EC2948FE0C822D12C59
:10345000F601EB58FF4F0C944D2F8C2F807FCF70CF
:10346000882311F0C295C07F112399F0CC2309F471
:103470008DC180E28D0F883010F0D11104C08C2FE7
:103480000E941E2203C08C2F0E942E220E946722BF
:103490007DC18D2F0E94BD19CC2309F49CC180E20F
:1034A0008D0F883010F0D11104C08C2F0E9424227F
:1034B00003C08C2F0E9434220E9467228CC18C2F63
:1034C000807FCF70803211F0C295C07FDD2319F06C
:1034D000D130C9F022C0112371F0002341F0013036
:1034E00031F40E944E228C2B0E94542274C10E94FF
:1034F0004E228C2B04C1002319F0013009F46BC15A
:103500000E945D2218C0112321F0063008F063C12B
:103510000EC0053008F05FC10EC0112351F000232A
:1035200031F0F701858180FF31C18F7085838C2F49
:10353000E6C001113CC18C2FE8C08C2F8695869582
:10354000837090E0009719F0019761F044C1112356
:1035500021F08D2F9C2F937002C080E090E00E949C
:10356000AE1749C1112321F08D2F9C2F937002C0FB
:1035700080E090E00E94C4173EC18C2F837009F058
:1035800050C0111134C18D2F829586958770880F98
:10359000880F9D2F9F70492E512C612C712C082E65
:1035A00004C0440C551C661C771C0A94D2F7D4FF47
:1035B00014C00FE010E020E030E0B901A80104C021
:1035C000440F551F661F771F8A95D2F7CB01BA01AA
:1035D000609570958095909503C060E070E0CB0198
:1035E000C695C695C370D0E0C230D10561F0C33036
:1035F000D10581F06429752986299729219771F0D1
:103600000E945520F4C064297529862997290E94B3
:103610006720EDC00E945520C301B2010E944320E3
:10362000E6C0112319F08C2F817001C08695882384
:1036300009F4DDC08D2F829586958770880F880FDD
:103640009D2F9F70492E512C612C712C082E04C087
:10365000440C551C661C771C0A94D2F7D4FF14C086
:103660000FE010E020E030E0B901A80104C0440FF1
:10367000551F661F771F8A95D2F7CB01BA01609557
:1036800070958095909503C060E070E0CB01C69581
:10369000C695C3704C2F50E04230510569F043305D
:1036A000510589F0642975298629972941305105EA
:1036B00071F00E941B219BC06429752986299729D6
:1036C0000E942D2194C00E941B21C301B2010E94BF
:1036D00009218DC08D2F90E0FC01E05EF109E531FC
:1036E000F10508F04FC0EB57FF4F0C944D2FDF70E2
:1036F0008C2F8F71112331F00E94A2208D2F0E94F8
:10370000E91969C00E94C3208D2F0E94F01963C07F
:10371000112341F0053008F05EC08C2F8F710E949C
:10372000E82059C0063008F056C0F7CF112339F011
:103730008C2F8F710E94A2204EC01123C9F38C2FB1
:103740008F710E94C32047C0112329F08C2F8F71E5
:103750000E948D2040C00E9488203DC0112349F066
:10376000CF718C2F0E94A22063E08C2F0E949D229B
:1037700032C081E00E94B222023068F182E00E94F1
:10378000B22229C0112331F0002391F28D2F0E9423
:10379000FA1821C0002399F2D93349F45FEF67EE9C
:1037A00073E0515060407040E1F700C000008D2F81
:1037B0000E94BD1910C04C2F4F706D2FC7010E9481
:1037C000F4090E94B41F17C04C2F4F706D2FC70112
:1037D0000E94F70910C088E0C816D10441F05CF0DF
:1037E000EAE0CE1AD108F2E0CF16D10420F40E940C
:1037F00059170E94B507BB20F1F00E94102280FDEE
:103800001AC0F70112820E940A220E94A220C70158
:103810000E94291C0E940A22DF91CF911F910F91D3
:10382000FF90EF90DF90CF90BF907F906F905F9070
:103830004F900C94C320DF91CF911F910F91FF9077
:10384000EF90DF90CF90BF907F906F905F904F9000
:1038500008950F931F93CF93DF93EC018881998193
:103860002B813C81232BB9F09F3F11F48F3F99F0BE
:10387000CE010E94CD07882371F0688179818A8109
:103880000E94E7218C010E943F210E944020B80144
:10389000CE010E94F719DF91CF911F910F910895EA
:1038A0000E943B220E944B220E94672280E090E00F
:1038B0000E94AE1780E090E00C94C417809106013E
:1038C000909107010E94B2230C94501C0E942B225D
:1038D0000C945E1CE92FE295EF70F0E03297EE3029
:1038E000F105B0F4E656FF4F0C944D2F803F91F058
:1038F00018F4803E68F40EC0843F51F40BC0803E43
:1039000048F0813F29F406C093FB882780F9089589
:1039100080E0089581E008950E94DC210E946A1CE5
:103920000895CF93DF9300D000D01F92CDB7DEB7BC
:103930000F900F900F900F900F90DF91CF910895FF
:10394000CF93DF9300D000D000D0CDB7DEB726965E
:103950000FB6F894DEBF0FBECDBFDF91CF910895B3
:103960001F93CF93DF93C091570316E080915803C4
:10397000C81799F0D0E01C9FF0011D9FF00D112495
:10398000E75AFC4F40815181628173818481958126
:103990000E94A01C2196C770E9CFDF91CF911F91A3
:1039A00008954091890350918A0360918B0370912F
:1039B0008C0380918D0390918E030C94A01C8091B8
:1039C0008E0382958F7009F054C080918B038823F9
:1039D00009F44FC080915703A09158036091890367
:1039E00070918A0340918C0350918D03B6E08A1741
:1039F00009F43FC090E041155105C1F17F3F11F43A
:103A00006F3FA1F1B89FF001B99FF00D1124E75A63
:103A1000FC4F218172132AC02081621327C02281AA
:103A2000211124C0238134812417350710F421503B
:103A30003109241B350B283C3105C0F420918E033D
:103A40002F70206120938E0326E0289FF001299F8C
:103A5000F00D1124E25AFC4F80818F7080618083C9
:103A600089E893E00E94291C0C94B01C0196877091
:103A7000BECF0895CF92DF92EF92FF920F931F93E4
:103A8000CF93DF93CDB7DEB762970FB6F894DEBF62
:103A90000FBECDBF8C0185E0F801DE011D960190BF
:103AA0000D928A95E1F7D8014C9111965C9111978E
:103AB00012966C9112971396CD90DC9014973091DA
:103AC000890370918A0380918C0390918D030097F4
:103AD00009F46BC17F3F19F43F3F09F466C1E090E0
:103AE0008B03EE2009F4C0C020918E03C816D906BE
:103AF00028F0F601E81BF90BCF0104C080959095E2
:103B00008C0D9D1DFF24F394883C910578F0F12CD9
:103B1000207F09F0C6C07C2DD98AC88A89890E9475
:103B2000911C89E893E00E94291CB1C0822F807FFC
:103B300009F046C0751314C0341312C0611110C0CF
:103B40002F70206120938E030E94D11C89E893E09E
:103B50000E94291C80918E03D80115968C932EC04B
:103B6000CD2819F15F3F11F44F3FF9F0F62E6111A6
:103B70001CC0809157032091580336E0821709F446
:103B80005AC090E0389FF001399FF00D1124E75A98
:103B9000FC4F7181571306C07081471303C07281B7
:103BA000711103C001968770E9CFF62E662309F4E0
:103BB00027C180918E03816080938E03F12C20C1F8
:103BC000751308C0341306C0611104C080918E03C0
:103BD000D801C3C04D875E878D859E856A8B0E9404
:103BE0008C1C6A898823E1F16623D1F120918E0330
:103BF000822F82958F7090E0029774F080918903F4
:103C000090918A0398878F831986DB86CA862C87D2
:103C1000CE0107960E94291C86E0F801A9E8B3E0CE
:103C200001900D928A95E1F70E94DF1C0E94D11C41
:103C3000FF24F394E5C04D875E878D859E850E94A5
:103C4000DC21292F22952F7030E0223031050CF035
:103C5000CBC09F7009F0C5C0805E883008F4D0C02A
:103C6000C8010E94291CE4CFC816D90608F453C025
:103C7000F601E81BF90BCF01883C910508F450C010
:103C8000F12C7C2DD98AC88A89890E94911CE9E887
:103C9000F3E086E0DF011D928A95E9F70E94D11CCE
:103CA000AFC0751314C0341312C0611110C08091DD
:103CB0008E03F8018583C8010E94291C86E0E9E88B
:103CC000F3E0DF011D928A95E9F7FE2C99C04D873C
:103CD0005E878D859E856A8B0E948C1C6A898823ED
:103CE00009F4BECF662309F4BBCF20918E03822F47
:103CF00082958F7090E002970CF48ECF80918903AB
:103D000090918A039A8389831B82DD82CC822E83E1
:103D1000CE0101967FCF809590958C0D9D1DACCFE7
:103D2000F62E662309F49CCF75132EC034132CC0D5
:103D300020918E0320FD1FC0822F82958F70D9F0B5
:103D4000D80115962C9315978F3049F08F5F982FD7
:103D50009295907F822F8F70892B15968C93C80136
:103D60000E94291C86E0F801A9E8B3E001900D92B9
:103D70008A95E1F793CF86E0F801A9E8B3E00190D6
:103D80000D928A95E1F73CC04D875E878D859E85B3
:103D90000E948C1C811140CF80918E0381608093A2
:103DA0008E03C8010E94291C2BC0662309F458CF3A
:103DB0004D875E878D859E850E948C1CF82E8823FA
:103DC00009F44ECF86E0F801A9E8B3E001900D9226
:103DD0008A95E1F789E893E00E94F4180E94DF1CBD
:103DE0005DCF811139CF0CC0243031050CF038CFB4
:103DF0009F7009F431CFF8019581907F09F02CCFA5
:103E00008F2D62960FB6F894DEBF0FBECDBFDF9147
:103E1000CF911F910F91FF90EF90DF90CF90089579
:103E20001F93CF93DF93CDB7DEB72C970FB6F894DF
:103E3000DEBF0FBECDBF4F83588769877A878B87D8
:103E40009C87CE0107960E943A1D882369F08F81D6
:103E500098852A853B85232BF1F19F3F09F063C0AC
:103E60008F3F09F060C037C086E0FE013796DE0163
:103E7000119601900D928A95E1F76F817885EA8518
:103E8000FB85309741F17F3F11F46F3F21F1209185
:103E9000580330E0C9010196877099274091570374
:103EA00050E08417950709F447C069837A83FD833E
:103EB000EC8396E0929FD001939FB00D1124A75AF6
:103EC000BC4FFE01319601900D929A95E1F78093D7
:103ED00058030E94B01C16E080915703909158033C
:103EE0008917C1F1189FC0011124875A9C4F0E9465
:103EF0003A1D882379F1E09157031E9FF0011124A8
:103F0000E75AFC4F408151816281738184819581A0
:103F10000E94A01C8091570390E00196877099271A
:103F200080935703D9CF4F81588569857A858B85D2
:103F30009C850E94A01CCFCF0E94661C1092580343
:103F400010925703E9E8F3E086E0DF011D928A95BD
:103F5000E9F7C1CF2C960FB6F894DEBF0FBECDBFE8
:103F6000DF91CF911F910895EF92FF920F931F93CE
:103F7000CF93DF938C01892B09F46CC0F12CEE24D4
:103F8000E394E8012196F8018491843740F4843069
:103F900008F051C0813081F0823019F15BC0853763
:103FA00009F444C0A8F19CE7980F903708F052C07C
:103FB0008F770E94BD1941C00E5F1F4FFE01C49153
:103FC00080E28C0F883048F4C7708E2D01C0880FB6
:103FD000CA95EAF70E943E2214C08C2F0E94FA185C
:103FE0002DC00E5F1F4FFE01C49180E28C0F883000
:103FF00058F4C7708E2D01C0880FCA95EAF70E9449
:1040000044220E9467221AC08C2F0E94BD1916C03C
:104010000E5F1F4FFE01C491CC2381F08FE99FE01A
:104020000197F1F700C00000C150F6CF0E5F1F4F9F
:10403000FE01F49003C00E94FA188E018F2D882390
:1040400009F49FCFEFE9FFE03197F1F700C00000DE
:104050008150F5CFDF91CF911F910F91FF90EF909D
:10406000089508950C9431200E9432206093BB0380
:104070007093BC038093BD039093BE030C94501CBB
:1040800008950C9434200F931F930091BB0310915B
:10409000BC032091BD033091BE03602B712B822B9A
:1040A000932B1F910F910C9434200F931F93009129
:1040B000BB031091BC032091BD033091BE0360236C
:1040C0007123822393231F910F910C9434200F931B
:1040D0001F930091BB031091BC032091BD0330914D
:1040E000BE0360277127822793271F910F910C949D
:1040F000342008950C9479200E947A206093B703AD
:104100007093B8038093B9039093BA030C94501C36
:1041100060E070E0CB010C947C200F931F9341E092
:1041200050E060E070E08A019B0104C0000F111FA5
:10413000221F331F8A95D2F7C901B8011F910F9131
:104140000C947C200F931F9341E050E060E070E0FE
:1041500004C0440F551F661F771F8A95D2F78091C0
:10416000B7039091B803A091B903B091BA038A0143
:104170009B01082B192B2A2B3B2BC901B8011F913E
:104180000F910C947C200F931F9341E050E060E06E
:1041900070E004C0440F551F661F771F8A95D2F741
:1041A00040955095609570958091B7039091B803B4
:1041B000A091B903B091BA038A019B010823192386
:1041C0002A233B23C901B8011F910F910C947C2035
:1041D0000F931F9341E050E060E070E004C0440F93
:1041E000551F661F771F8A95D2F78091B70390916C
:1041F000B803A091B903B091BA038A019B010827C3
:1042000019272A273B27C901B8011F910F910C9448
:104210007C200F931F930091B7031091B803209156
:10422000B9033091BA03602B712B822B932B1F9112
:104230000F910C947C200F931F930091B703109162
:10424000B8032091B9033091BA036023712382230C
:1042500093231F910F910C947C200F931F93009137
:10426000B7031091B8032091B9033091BA036027C6
:104270007127822793271F910F910C947C2008951A
:1042800028E0929F800D1124A82FA695A695A695AB
:10429000877051E001C0550F8A95EAF785E0A89F25
:1042A000D001112420E030E070E0F901EA0FFB1F9B
:1042B000E157FC4F4081CB01022E02C096958795B5
:1042C0000A94E2F7817099278195842785238427B2
:1042D00080832F5F3F4F2530310539F7089528E05F
:1042E000929F800D1124682F669566956695982F8C
:1042F000977085E0689FB001112440E050E080E0B5
:10430000FA01E60FF71FE157FC4F208130E0092E3C
:1043100002C0369527950A94E2F721703327042EC0
:1043200001C0220F0A94EAF7822B4F5F5F4F45309E
:10433000510531F70895BF92CF92DF92EF92FF922D
:104340000F931F93CF93DF938C01C090BB03D0904A
:10435000BC03E090BD03F090BE038091B703909141
:10436000B803A091B903B091BA03C82AD92AEA2A9E
:10437000FB2ACFE1D0E0D701C6010C2E04C0B695D0
:10438000A795979587950A94D2F780FF07C0BC2E12
:10439000B8018C2F0E94150A019719F4219758F73C
:1043A000B12C8B2DDF91CF911F910F91FF90EF904A
:1043B000DF90CF90BF900895CF93DF93EC010E94E0
:1043C0009B21BE010E94150ADF91CF9108951F9392
:1043D000CF93DF93EB0190915603992321F0CB010A
:1043E0000E94DC2113C0882349F0CB010E949B214D
:1043F000182F682FCE010E94402104C0CB010E94DB
:104400006F21182FBE01812F0E94150ADF91CF91D5
:104410001F9108958091BF03859585958595089591
:104420008091BF03877008959091BF03977081E0DA
:1044300009F480E008958091CB0308959091CB0317
:10444000892B8093CB03089580959091CB0389238A
:104450008093CB0308951092CB0308959091CA03E3
:10446000892B8093CA03089580959091CA0389236C
:104470008093CA0308951092CA0308959091C903C6
:10448000892B8093C903089580959091C90389234E
:104490008093C90308951092C90308958091C003C1
:1044A000089508950C9451229091C003981721F01B
:1044B0008093C0030C94522208958091C0038823F6
:1044C00029F01092C00380E00C9452220895E091EC
:1044D0000601F09107018091CB038083E0910601F2
:1044E000F091070190818091CA03892B8083E0912C
:1044F0000601F091070190818091C903892B808387
:104500008091C003882381F0E0910601F0910701BA
:104510009081892B808380910601909107010E94F0
:104520007C2381110E945D228091060190910701F8
:104530000C94651708950C949A2298E0899F900135
:104540001124262B2093BF030E94A2208091BF0339
:104550008595859585950C949B221092BF0380E0EC
:104560000C949B222091BF03809582238093BF03EC
:10457000982F977079F430E0482F082E000C550BD7
:104580002417350739F08595859585950E94C320B8
:104590000C94AD22089590932B0280932A020895E3
:1045A0008295982F9C7C392F36953695282F23732A
:1045B00044E0249FC0011124932F982B292F2A7A9D
:1045C0002695892F8575880F822B08951F93CF9389
:1045D000DF931F92CDB7DEB799830E94D022182FA8
:1045E0009981892F0E94D022212F30E0322F22275B
:1045F000A901482BCA010F90DF91CF911F91089517
:1046000080E090E00E94BD2F21E08D3E9E4F09F09A
:1046100020E0822F089582E090E00C94AF2F83E099
:1046200090E00C94AF2F84E090E00C94AF2F682FB3
:1046300084E090E00C94C32FAB01BC018FE090E0CC
:104640000C94D52FAB01BC0183E190E00C94D52FE5
:1046500060E070E0CB010C94222360E070E0CB01BD
:104660000E941C230C9428236DEE7EEF80E090E0E6
:104670000E94E12F60E082E090E00E94C32F60E0A2
:1046800083E090E00E94C32F1092BB031092BC0302
:104690001092BD031092BE0360E084E090E00E949F
:1046A000C32F60E085E090E00E94C32F60E086E0C9
:1046B00090E00E94C32F6FEF87E090E00E94C32F2D
:1046C00040E050E0BA0188E090E00E94D52F60E021
:1046D0008DE090E00E94C32F40E050E0BA0188E1F5
:1046E00090E00E94D52F60E087E190E00E94C32F08
:1046F0000C942D230C943423FC01329697E080E037
:10470000915029F021912223D9F38F5FF9CF089599
:104710009C01FC0132969FEF80E04191461789F0A1
:104720009F3F19F4411101C0982F8F5F8630A9F780
:104730009F3F39F0F901E90FF11D97FDFA9562836A
:1047400008950895FC01329608962081261301C031
:1047500010823196E817F907C1F708950C94882361
:104760000C94A223029626E0FC0111922A95E9F707
:10477000089508950C94B9230E94BA2380912B04C4
:10478000843049F11092CD0320E488E190E00FB627
:10479000F894A895809360000FBE2093600080E09D
:1047A0000E94B5070E94BA2383B7817F846083BFCC
:1047B00083B7816083BF7894889583B78E7F83BFEA
:1047C0000FB6F894A895809160008861809360008E
:1047D000109260000FBE089508950895CF930E942F
:1047E000EC230E941F070E94ED23C0E08C2F0E9443
:1047F0003807811104C0CF5FC830C1F701C081E024
:10480000CF91089508950C9402240E94661C0E9482
:1048100059170E94B5070C9403241F920F920FB6EC
:104820000F9211248F939F93AF93BF938091CD03E9
:10483000811113C08091210490912204A09123043E
:10484000B09124044196A11DB11D80932104909341
:104850002204A0932304B0932404BF91AF919F91AD
:104860008F910F900FBE0F901F90189582E084BD1E
:1048700093E095BD9AEF97BD80936E0008952FB792
:10488000F8948091210490912204A0912304B09186
:1048900024042FBF0895CF92DF92EF92FF920F93DF
:1048A0001F932FB7F89440912104509122046091F6
:1048B0002304709124042FBF6A017B01EE24FF249E
:1048C0008C0120E030E0C016D106E206F30610F4B9
:1048D000415051099A01281B390BC9011F910F91B1
:1048E000FF90EF90DF90CF90089578941F920F92F1
:1048F0000FB60F9211248F939F93AF93BF93809124
:10490000210490912204A0912304B09124040196E3
:10491000A11DB11D8093210490932204A093230430
:10492000B0932404BF91AF919F918F910F900FBED0
:104930000F901F90189587E797E790930108809351
:1049400000089AE088E10FB6F894A895809360007B
:104950000FBE90936000FFCF0E940023811102C020
:104960000E947A230E940B238093CC030E9413237E
:1049700090E090932604809325040E940F23682FD3
:1049800070E080E090E00C9441208091D90308957C
:1049900008959FB7F8941092D0039FBF90912B0475
:1049A000943009F057C09091E9009F703091EC006D
:1049B000232F217030FD20E8922B23E02093E90083
:1049C0002091EB0020FF43C02091EE0027FF3FC065
:1049D0002091CE03222321F02091E80025FF37C04B
:1049E0001092CE0326E03091E80035FD15C03091DD
:1049F0002B04343061F53091EB0035FD28C0215097
:104A000021F481E08093CE0322C0EFE9FFE03197EB
:104A1000F1F700C00000E7CF8093F1008091E8003B
:104A200085FD0AC08091E80080FFFCCF8091E800FE
:104A30008E778093E80006C08FB7F89421E020932A
:104A4000D0038FBF9F709093E90080E008959F701E
:104A50009093E9008FEF08950F931F93CF93DF9307
:104A600000D01F92CDB7DEB78C010E94BC278230E8
:104A700011F0843021F584E089831B830A8382E06E
:104A80008093E9008FEF9091E800815095FD06C07A
:104A900095ED9A95F1F700008111F5CF8091E8002E
:104AA00085FF0DC040E050E063E070E0CE0101966C
:104AB0000E94D9278091E8008E778093E8000F90BC
:104AC0000F900F90DF91CF911F910F910895CF9389
:104AD000DF9300D01F92CDB7DEB720912B04243096
:104AE00031F523E02983805891099B838A8382E0F2
:104AF0008093E9008FEF9091E800815095FD06C00A
:104B000095ED9A95F1F700008111F5CF8091E800BD
:104B100085FF0DC040E050E063E070E0CE010196FB
:104B20000E94D9278091E8008E778093E8000F904B
:104B30000F900F90DF91CF910895CF93DF93EC0109
:104B40000E94BC27823011F0843039F581E08093D7
:104B5000E9008FEF9091E800815095FD06C095ED3A
:104B60009A95F1F700008111F5CF8091E80085FF5B
:104B700014C040E050E068E070E0CE010E94D92708
:104B80008091E8008E778093E80088E0FE01A1ED37
:104B9000B3E001900D928A95E1F7DF91CF910895EE
:104BA00085E096E00E94F70380912A04811109C0F4
:104BB0000E946E290E94CB298091E200846080933C
:104BC000E200089581E096E00E94F70310922A0423
:104BD00008958DEF95E00C94F70389EF95E00C9420
:104BE000F70385EF95E00E94F7030C9405242091CC
:104BF000CF032F5F822F62E30E94192F992319F0B0
:104C00002093CF0308951092CF038091D00388237F
:104C100071F180912B04843041F58091E9008F700F
:104C20002091EC00922F917020FD90E8892B93E069
:104C30009093E9009091EB0090FF14C09091EE00EA
:104C400097FF10C09091E80095FF03C01092F1000B
:104C5000F9CF9091E80090FF05C09091E8009E7711
:104C60009093E8008F708093E9001092D00308952C
:104C700042E061EC81E00E94E82842E261EC82E0DF
:104C80000E94E82842E261EC83E00C94E8288091DD
:104C90002D04833009F460C030F4813071F082302B
:104CA00009F499C008958A3009F485C08B3009F45D
:104CB0006BC0893009F0A7C020C080912C04813AD4
:104CC00009F0A1C08091E800877F8093E80080917F
:104CD000300490913104892B21F468E081ED93E058
:104CE00003C060E080E090E070E00E9424288091A2
:104CF000E8008B778093E800089580912C0481323E
:104D000009F081C08091300490913104029708F03D
:104D10007AC08091E800877F8093E8008091E80066
:104D200082FD05C080912B048111F8CF6CC02091C9
:104D3000F3008091F20090E0922B029729F4809189
:104D4000F1008B7F813021F48091F1008093D903B1
:104D50008091E8008B7753C080912C04813A09F050
:104D600052C08091300490913104892B09F04BC0DE
:104D70008091E800877F8093E8008091E80080FFC1
:104D8000FCCF8091120136C080912C048132D9F57C
:104D90008091300490913104892BA9F58091E8002D
:104DA000877F8093E8000E941D2980912E048093C4
:104DB00012010C94661C80912C04813221F58091A3
:104DC000E800877F8093E8000E941D2980912F04CE
:104DD0008093DA03089580912C04813AA1F48091A4
:104DE000E800877F8093E8008091E80080FFFCCF97
:104DF0008091DA038093F1008091E8008E778093B0
:104E0000E8000C941D29089584B7877F84BF0FB6EE
:104E1000F894A8958091600088618093600010925A
:104E200060000FBE80E880936100109261000E94D4
:104E3000E8170E946E290E94CB298091E2008460CD
:104E40008093E20089EC94E20E94CB2278940E9445
:104E5000592C0E94F01788E091E00E94541784EECC
:104E600095E00E94F70380912B04853089F480EE51
:104E700095E00E94F7030E94BC23809129048823B7
:104E800091F30E94EE23882371F30E94C327EBCF96
:104E90000E942018E8CF0C944D27292F3327233068
:104EA0003105C9F064F42130310581F0223031053B
:104EB00009F049C08BE590E02FE336E048C021328D
:104EC000310521F12232310571F13DC082E190E0DE
:104ED0002AE936E03CC099278130910571F02CF425
:104EE000892B89F5EBE3F6E00DC08230910541F0A6
:104EF000039749F5E9E0F6E005C0E3E2F6E002C019
:104F0000EFE0F6E0849190E09F0121C063307105ED
:104F1000D0F4660F771FFB01EC5DFD4F20813181DE
:104F200089E090E014C06330710568F4FB01EE0F76
:104F3000FF1FE25EFD4F20813181FB01E55EFD4FE9
:104F4000808190E004C080E090E020E030E0FA0151
:104F50003183208308950895CF93C82F0E94AB27F3
:104F6000C093DB03CF91089580912B04843011F01E
:104F700081E0089582E008958091DB03811102C0F1
:104F80000C94B427089580E189BD82E189BD09B4FC
:104F900000FEFDCF8091D8008F7D8093D800809156
:104FA000E00082608093E0008091E00081FDFCCF12
:104FB0000895CF92DF92EF92FF920F931F93CF93BA
:104FC000DF93EC018B016A010E943C29811133C0FF
:104FD000C114D10439F0F60180819181081B190BAD
:104FE000C80FD91FE12CF12C0115110519F1809181
:104FF000E80085FD16C08091E8008E778093E80078
:10500000C114D10449F0F60180819181E80EF91EA6
:10501000F182E08285E00FC00E943C29882321F3C1
:105020000AC089918093F10001501109FFEFEF1A36
:10503000FF0ADACF80E0DF91CF911F910F91FF90AF
:10504000EF90DF90CF900895209132043091330497
:105050002617370748F06115710539F42091E800EB
:105060002E772093E80001C0B90140E06115710579
:10507000A9F120912B04222309F443C0253009F41F
:1050800042C02091E80023FD40C02091E80022FDAD
:1050900032C02091E80020FFE9CF4091F300209139
:1050A000F20030E0342BFC01CF016115710559F09D
:1050B0002830310540F481918093F10061507109ED
:1050C0002F5F3F4FF1CF41E02830310509F040E03C
:1050D0002091E8002E772093E800C8CF4111C9CF76
:1050E0000AC080912B04882361F0853061F08091A3
:1050F000E80083FD0AC08091E80082FFF2CF80E0E3
:10510000089582E0089583E0089581E00895209154
:105110003204309133042617370748F061157105C2
:1051200039F42091E8002E772093E80001C0B901FE
:10513000FC0120E06115710591F180912B04882319
:1051400009F440C0853009F43FC08091E80083FD38
:105150003DC08091E80082FD2FC08091E80080FF73
:10516000E9CF2091F3008091F20090E0922B61153D
:10517000710559F08830910540F424912093F10095
:105180003196615071090196F2CF21E0089709F03C
:1051900020E08091E8008E778093E800CBCF21114A
:1051A000CCCF0AC080912B04882361F0853061F058
:1051B0008091E80083FD0AC08091E80082FFF2CF71
:1051C00080E0089582E0089583E0089581E00895E5
:1051D000982F973058F59093E900981739F070910F
:1051E000EC002091ED005091F00003C0242F762FA9
:1051F00050E021FF19C03091EB003E7F3093EB006F
:105200003091ED003D7F3093ED003091EB00316047
:105210003093EB007093EC002093ED005093F0007E
:105220002091EE0027FF07C09F5FD3CF8F70809340
:10523000E90081E0089580E0089580912C0487FFC3
:1052400011C08091E80082FD05C080912B0481117E
:10525000F8CF11C08091E8008B770BC080912B04B0
:10526000882349F08091E80080FFF8CF8091E80022
:105270008E778093E80008952091E4003091E50056
:1052800095E64091EC00842F817040FF22C0809110
:10529000E80080FD1CC080912B04882391F08530AC
:1052A00091F08091EB0085FD10C04091E400509199
:1052B000E5004217530729F39A01915011F784E052
:1052C000089582E0089583E0089581E0089580E0E4
:1052D00008954091E80042FFDECF08950E94DC2946
:1052E0000E94E429E0EEF0E0808181608083E8EDB7
:1052F000F0E080818F77808319BCA7EDB0E08C91BE
:105300008E7F8C9380818F7E808310922A040895F3
:105310000F931F93CF93DF930E94DC290E94E4290F
:10532000C8EDD0E088818F77888388818068888302
:1053300088818F7D888319BC10922B0410922704DA
:10534000109229041092280400EE10E0F8018081E8
:105350008B7F808388818160888342E060E080E089
:105360000E94E828E1EEF0E080818E7F8083E2EE0B
:10537000F0E0808181608083808188608083F80193
:1053800080818E7F8083888180618883DF91CF9147
:105390001F910F910895E8EDF0E080818F7E80836A
:1053A000E7EDF0E080818160808384E082BF81E06E
:1053B00080932A040C948829E8EDF0E080818E7FA8
:1053C00080831092E20008951092DA001092E100BA
:1053D00008951F920F920FB60F9211242F933F93AF
:1053E0004F935F936F937F938F939F93AF93BF93ED
:1053F000EF93FF938091E10082FF0BC08091E20068
:1054000082FF07C08091E1008B7F8093E1000E94C2
:10541000F7258091DA0080FF1FC08091D80080FFBF
:105420001BC08091DA008E7F8093DA008091D900D2
:1054300080FF0DC080E189BD82E189BD09B400FE15
:10544000FDCF81E080932B040E94D02505C019BCBC
:1054500010922B040E94E2258091E10080FF19C088
:105460008091E20080FF15C08091E2008E7F8093E2
:10547000E2008091E20080618093E2008091D80098
:1054800080628093D80019BC85E080932B040E9431
:10549000ED258091E10084FF30C08091E20084FF1F
:1054A0002CC080E189BD82E189BD09B400FEFDCF39
:1054B0008091D8008F7D8093D8008091E1008F7E0D
:1054C0008093E1008091E2008F7E8093E2008091E2
:1054D000E20081608093E20080912704882311F02C
:1054E00084E007C08091E30087FD02C081E001C035
:1054F00083E080932B040E94F1258091E10083FFDB
:1055000029C08091E20083FF25C08091E100877F60
:105510008093E10082E080932B0410922704809115
:10552000E1008E7F8093E1008091E2008E7F809386
:10553000E2008091E20080618093E20042E060E05E
:1055400080E00E94E8288091F00088608093F0005D
:105550000E94E925FF91EF91BF91AF919F918F91AB
:105560007F916F915F914F913F912F910F900FBE5F
:105570000F901F9018951F920F920FB60F92112443
:105580002F933F934F935F936F937F938F939F934B
:10559000AF93BF93CF93DF93EF93FF93C091E90055
:1055A000CF708091EC00D82FD17080FDD0E81092A0
:1055B000E9008091F000877F8093F00078940E944A
:1055C000FF2A1092E9008091F00088608093F0003B
:1055D000CD2BCF70C093E900FF91EF91DF91CF9178
:1055E000BF91AF919F918F917F916F915F914F91FB
:1055F0003F912F910F900FBE0F901F9018951F9302
:10560000CF93DF93CDB7DEB7AA970FB6F894DEBF7E
:105610000FBECDBFECE2F4E088E08E0F9091F10078
:1056200091938E13FBCF0E9447268091E80083FF61
:1056300028C180912C0490912D04492F50E04A30CC
:10564000510508F01EC1FA01E855FF4F0C944D2F8B
:10565000803821F0823809F014C108C080912804F4
:1056600090912904992389F082600FC080913004C1
:105670008F70873008F005C18093E9008091EB00BE
:1056800085FB882780F91092E9009091E800977FC8
:105690009093E8008093F1001092F100D0C0282F81
:1056A0002D7F09F0EEC0882319F0823061F0E9C047
:1056B00080912E04813009F0E4C0933009F080E03D
:1056C000809329042EC080912E0481112AC08091DC
:1056D00030048F702FEF280F263008F0D2C080934F
:1056E000E9002091EB0020FF1CC0933021F4809151
:1056F000EB00806214C09091EB0090619093EB00FE
:1057000021E030E0A90102C0440F551F8A95E2F75D
:105710004093EA001092EA008091EB008860809349
:10572000EB001092E9008091E800877F8093E80009
:105730000E941D29A6C08111A4C010912E041F77BC
:105740008091E3008078812B8093E3008091E800D2
:10575000877F8093E8000E941D298091E80080FFE8
:10576000FCCF8091E30080688093E300111102C0B8
:1057700082E001C083E080932B0483C08058823094
:1057800008F07FC080912E0490912F048C3D53E04F
:10579000950779F583E08A838AE289834FB7F89485
:1057A000DE01139620E03EE051E2E32FF0E050935B
:1057B0005700E49120FF03C0E295EF703F5FEF7068
:1057C0008E2F90E0EA3010F0C79601C0C0968D93FE
:1057D0009D932F5F243149F74FBF8091E800877F69
:1057E0008093E8006AE270E0CE0101960E942428CE
:1057F00015C06091300470913104AE014F5F5F4F6E
:105800000E944B27BC01892BE1F19091E800977F22
:105810009093E80089819A810E9487288091E8000E
:105820008B778093E8002DC0803859F58091E8008F
:10583000877F8093E800809127048093F100809116
:10584000E8008E7773CF81111CC090912E049230A6
:10585000C0F48091E800877F8093E800909327044C
:105860000E941D2980912704811106C08091E300C8
:1058700087FD02C081E001C084E080932B040E9478
:1058800038268091E80083FF0AC08091E800877F76
:105890008093E8008091EB0080628093EB00AA96F1
:1058A0000FB6F894DEBF0FBECDBFDF91CF911F9131
:1058B0000895CF9380912B048823A1F0C091E90033
:1058C000CF709091EC00892F817090FD80E8C82BFB
:1058D0001092E9008091E80083FD0E94FF2ACF70BA
:1058E000C093E900CF9108955058BB27AA270E9482
:1058F0008C2C0C940D2E0E94D42D38F00E94DB2DA0
:1059000020F039F49F3F19F426F40C94D12D0EF4B5
:10591000E095E7FB0C94CB2DE92F0E94322E58F333
:10592000BA17620773078407950720F079F4A6F584
:105930000C94542E0EF4E0950B2EBA2FA02D0B01D3
:10594000B90190010C01CA01A0011124FF27591BC4
:1059500099F0593F50F4503E68F11A16F040A22FCA
:10596000232F342F4427585FF3CF4695379527953B
:10597000A795F0405395C9F77EF41F16BA0B620B3A
:10598000730B840BBAF09150A1F0FF0FBB1F661F81
:10599000771F881FC2F70EC0BA0F621F731F841FC4
:1059A00048F4879577956795B795F7959E3F08F0EA
:1059B000B0CF9395880F08F09927EE0F97958795AC
:1059C00008950E94E42DE3950C941E2E0E94FA2C5B
:1059D0000C940D2E0E94DB2D58F00E94D42D40F027
:1059E00029F45F3F29F00C94CB2D51110C94552EC6
:1059F0000C94D12D0E94322E68F39923B1F35523D4
:105A000091F3951B550BBB27AA27621773078407D1
:105A100038F09F5F5F4F220F331F441FAA1FA9F367
:105A200035D00E2E3AF0E0E832D091505040E69555
:105A3000001CCAF72BD0FE2F29D0660F771F881FB6
:105A4000BB1F261737074807AB07B0E809F0BB0BA9
:105A5000802DBF01FF2793585F4F3AF09E3F5105BD
:105A600078F00C94CB2D0C94552E5F3FE4F3983EC8
:105A7000D4F3869577956795B795F7959F5FC9F7A6
:105A8000880F911D9695879597F90895E1E0660F27
:105A9000771F881FBB1F621773078407BA0720F0A0
:105AA000621B730B840BBA0BEE1F88F7E095089509
:105AB0000E945F2D6894B1110C94552E08950E9498
:105AC0003A2E88F09F5798F0B92F9927B751B0F028
:105AD000E1F0660F771F881F991F1AF0BA95C9F772
